:100000000C9434000C9451000C9451000C94510049
:100010000C9451000C9451000C94F0000C9451007D
:100020000C9451000C9451000C9451000C946201FA
:100030000C94D7000C9451000C9451000C94510076
:100040000C9453000C9451000C9451000C945100EA
:100050000C9451000C9451000C9451000C945100DC
:100060000C9451000C94510011241FBECFEFD8E026
:10007000DEBFCDBF11E0A0E0B1E0EAEFF6E002C0E4
:1000800005900D92A230B107D9F721E0A2E0B1E0CE
:1000900001C01D92A530B207E1F70E94E3010C9464
:1000A0007B030C9400001F920F920FB60F92112445
:1000B0002F933F934F935F938F939F9380917C00F7
:1000C000803609F44CC000B605FE06C080910301DD
:1000D0009091040180FD09C000B605FC5DC08091CF
:1000E00003019091040180FD57C080918800909198
:1000F00089002091840030918500AC01440F551F88
:10010000840F951F820F931F9695879596958795D7
:100110009093890080938800809188009091890055
:100120009695879590938B0080938A0088E290E063
:10013000909385008093840082E080936F0086B363
:1001400086BB80917A00846B80937A0080917B00DB
:10015000846080937B0080E680937C001DC080914A
:100160007A0084FFFCCF8091790080930001809118
:1001700000018A3118F08091000101C089E180936B
:1001800000018091000188BD809100018093B3003F
:10019000809100018093B4009F918F915F914F9166
:1001A0003F912F910F900FBE0F901F9018951F92A7
:1001B0000F920FB60F9211248F93809102018093BA
:1001C0007C0010927A0080E480937B0086B386BB2B
:1001D00085B385BB8F910F900FBE0F901F90189520
:1001E0001F920F920FB60F92112415BC109281002E
:1001F0001092B1000F900FBE0F901F9018951092A3
:100200008500109284008091030190910401823056
:10021000910541F17CF40097D9F0019709F044C0B1
:1002200081E08093B00088E28BB98EE085B981E3EC
:1002300084BD34C08430910541F1E4F00597A1F507
:1002400081E084BD98E29BB99DE095B991E328C017
:1002500081E08093B00088E28BB98DE085B981E3BD
:1002600084BD11C081E084BD98E29BB99EE095B940
:1002700091EC16C081E084BD88E28BB98BE085B932
:1002800081EC8093B00083E00DC081E084BD88E202
:100290008BB98BE085B981E38093B00082E002C026
:1002A0009093B0008093020180910301909104012A
:1002B000019666E070E00E94290290930401809309
:1002C000030108951F920F920FB60F9211242F93DE
:1002D0003F934F935F936F937F938F939F93AF93CE
:1002E000BF93EF93FF930E94FF00EAE7F0E0808165
:1002F000846B8083EBE7F0E080818460808380E61C
:1003000080937C0084E080936F0086B386BB85B3C6
:1003100085BBA895FF91EF91BF91AF919F918F9170
:100320007F916F915F914F913F912F910F900FBEF1
:100330000F901F9018950F931F93CF93DF931092F8
:10034000850010928400C2EBD0E000E315E7109323
:10035000890000938800B19BFECF0E94FF00B19AF4
:10036000B80180E090E00E94800224EA30E74DE787
:100370005FE30E94E6020E9451028B01219739F748
:1003800080916F00846080936F0080916E00816027
:1003900080936E0080918800909189009695879552
:1003A00090938900809388008091880090918900C3
:1003B0009695879590938B0080938A00DF91CF91DB
:1003C0001F910F91089598E29AB98FE084B99BB973
:1003D00085B9F89484B5816084BD85B5816085BD9B
:1003E0008091000188BD8091B00081608093B00051
:1003F0008091B10081608093B10080910001809371
:10040000B300809100018093B400809181008260EC
:10041000809381000E94FF000E949B0180917A00DE
:10042000846B80937A0080917B00846080937B0052
:1004300080E680937C00A89584B7877F84BF8091F5
:10044000600088618093600085E480936000789408
:10045000FFCF97FB072E16F4009407D077FD09D045
:100460000E943D0207FC05D03EF4909581959F4F78
:100470000895709561957F4F0895AA1BBB1B51E1AC
:1004800007C0AA1FBB1FA617B70710F0A61BB70B04
:10049000881F991F5A95A9F780959095BC01CD01A9
:1004A00008950E94C50288F09F5798F0B92F9927A8
:1004B000B751B0F0E1F0660F771F881F991F1AF04F
:1004C000BA95C9F714C0B13091F00E94DF02B1E0D3
:1004D00008950C94DF02672F782F8827B85F39F0D2
:1004E000B93FCCF3869577956795B395D9F73EF4E8
:1004F00090958095709561957F4F8F4F9F4F089590
:10050000E89409C097FB3EF49095809570956195AD
:100510007F4F8F4F9F4F9923A9F0F92F96E9BB2763
:100520009395F695879577956795B795F111F8CFDF
:10053000FAF4BB0F11F460FF1BC06F5F7F4F8F4F4A
:100540009F4F16C0882311F096E911C0772321F040
:100550009EE8872F762F05C0662371F096E8862FD8
:1005600070E060E02AF09A95660F771F881FDAF72F
:10057000880F9695879597F9089557FD9058440FE1
:10058000551F59F05F3F71F04795880F97FB991FF2
:1005900061F09F3F79F087950895121613061406AF
:1005A000551FF2CF4695F1DF08C01616170618063C
:1005B000991FF1CF86957105610508940895E89417
:1005C000BB2766277727CB0197F908950E94F90288
:1005D0000C946A030E945C0338F00E94630320F0CD
:1005E000952311F00C9453030C94590311240C948B
:1005F000E0020E94BD0270F3959FC1F3950F50E099
:10060000551F629FF001729FBB27F00DB11D639FC4
:10061000AA27F00DB11DAA1F649F6627B00DA11D6A
:10062000661F829F2227B00DA11D621F739FB00D10
:10063000A11D621F839FA00D611D221F749F332780
:10064000A00D611D231F849F600D211D822F762F19
:100650006A2F11249F5750409AF0F1F088234AF0F6
:10066000EE0FFF1FBB1F661F771F881F9150504062
:10067000A9F79E3F510580F00C9453030C94E002BF
:100680005F3FE4F3983ED4F3869577956795B795E9
:10069000F795E7959F5FC1F7FE2B880F911D969503
:1006A000879597F9089597F99F6780E870E060E073
:1006B00008959FEF80EC089500240A9416161706FB
:1006C00018060906089500240A9412161306140643
:1006D00005060895092E0394000C11F4882352F0A6
:1006E000BB0F40F4BF2B11F460FF04C06F5F7F4F5E
:0A06F0008F4F9F4F0895F894FFCF3D
:0206FA001E00E0
:00000001FF
